:020000041400E6
:10000000F0790020D900001400F002F800F08AF81E
:100010000AA090E8000C82448344AAF10107DA4563
:1000200001D100F07FF8AFF2090EBAE80F0013F02B
:10003000010F18BFFB1A43F001031847F40000003A
:10004000240100000A444FF0000C10F8013B13F0AB
:10005000070408BF10F8014B1D1108BF10F8015B21
:10006000641E05D010F8016B641E01F8016BF9D114
:1000700013F0080F1EBF10F8014BAD1C0C1B09D16B
:100080006D1E58BF01F801CBFAD505E014F8016BDD
:1000900001F8016B6D1EF9D59142D6D3704700006F
:1000A000103A24BF78C878C1FAD8520724BF30C8A4
:1000B00030C144BF04680C60704700000023002476
:1000C00000250026103A28BF78C1FBD8520728BF68
:1000D00030C148BF0B607047DFF82C00016841F465
:1000E0007001016009480047FEE7FEE7FEE7FEE712
:1000F000FEE7FEE7FEE7FEE7FEE7FEE70448054908
:10010000054A064B7047000088ED00E00900001426
:10011000F00B0020F0790020F0730020F073002035
:100120007046704740F2D91CC1F2000C60470000D5
:100130006001001400000010A4570100A00000148A
:100140000459011400000020AC0100004400001418
:1001500054590114AC01002044780000BC00001484
:10016000F0790020D9000014E9000014EB0000141D
:10017000ED000014EF000014F10000145A5A5A5A0E
:10018000000000000000000000000000F300001468
:10019000F500001400000000F7000014F90000143E
:1001A000FB000014A99B0010FB000014FB000014CE
:1001B000FB000014FB000014FB000014FB00001403
:1001C00001A60010FB000014FB000014FB0000144B
:1001D000FB000014FB000014FB000014FB000014E3
:1001E000FB000014FB000014B54B0010FB000014D2
:1001F000FB000014FB000014FB000014E950001089
:1002000099540010FB000014FB000014FB000014C4
:10021000FB000014FB000014FB000014FB000014A2
:10022000FB000014FB000014FB000014FB00001492
:10023000FB000014FB000014FB000014FB00001482
:10024000FB000014FB000014FB000014FB00001472
:1002500000000000FB000014FB000014FB00001471
:1002600000000000FB000014FB000014FB00001461
:10027000FB0000146E2908F0BF80702908F0FF8190
:10028000662910F0DA83652910F0D783672910F00A
:10029000D4836129AFF3008003681B0A28BF41F0B3
:1002A0008001692907F00685642907F0038575290F
:1002B00007F000856F2908F08D81782908F0CB813F
:1002C000E92908F02981E42908F02681F52908F0B8
:1002D0002381EF2908F08A81F82908F0CA81036890
:1002E000DB0928BF41F08001632908F07F8473296E
:1002F00008F08484E32908F08F84F32908F09484BB
:10030000002070471FB510F068FB9DE8030007F060
:1003100077FF08F0F1FC0400002000210FF0D4FF6B
:10032000401C6060002000210FF0B8FFE06007F083
:1003300023FF1FBD10B510BD08F0B0FC1146FFF73C
:10034000E1FF00F01BF808F087FD03B4FFF7F2FFB0
:1003500003BC08F0BFF9000030B58DB004460D466F
:100360002B46224617A101A807F08EFCE0B201AA95
:100370004FF47F010FF008FE0DB030BD10B541F213
:10038000E452164916480CF077FE1648006800F053
:1003900001F904F023FE1348006800F0FAFC002184
:1003A000114800F021FD01F068F800210F4800F02D
:1003B0001BFD01210E4800F017FD00F03EFE00205D
:1003C00010BD0000726563656976656420736967B6
:1003D0006E616C3A2025642025640A00DE08011055
:1003E00000800020F40000202400002050000020A5
:1003F0003C0000200146F74A086810600020704762
:1004000010B50020F4490860F44909680868002123
:1004100003F079F9E2B2F14909680868294603F066
:100420003CFEEF48006803F047FF002010BD10B508
:10043000A0B017A80CF0A6FF012416E02246E9A1FF
:100440000FA807F021FC2246E9A107A807F01CFC31
:10045000002017A924228123CDE90021029007AAB8
:1004600001210FA80CF048FC641C072CE6DD0020DD
:100470004FF47A710223E3A2CDE900100146F1A006
:100480000CF03AFC00204FF47A710223F04ACDE9D7
:1004900000100146EFA00CF02FFC002001210423E6
:1004A000F34ACDE900100146F2A00CF025FC002033
:1004B00001460290F3481423F34ACDE900100021CD
:1004C000F2A00CF019FC002001460290F34814231E
:1004D000F34ACDE900100021F2A00CF00DFC002041
:1004E00001460290ED481423F14ACDE900100021A5
:1004F000F0A00CF001FC0020E24902901423F24A23
:10050000CDE900010146F1A00CF0F6FB0020F44912
:1005100002901423F34ACDE900010146F2A00CF049
:10052000EBFB0020F44902901423F44ACDE90001CA
:100530000146F3A00CF0E0FB002001210B46F64A37
:10054000CDE900100146F5A00CF0D6FB002205A96C
:10055000BCA00CF050FC002204A9BEA00CF04BFC87
:10056000002203A9C3A00CF046FC002206A9EBA0C0
:100570000CF041FC9DF818000090BDF81020BDF86B
:1005800014109648039B006802F0A2FFFFF738FFA3
:1005900020B010BD70B5064604200EF077FC04466E
:1005A00003F022FE04468E480460F0200EF06EFC3C
:1005B00005468B480168284601F0B4FE0546874889
:1005C0000560DA4930460DF0AAFC0022D8A1DB48CC
:1005D00000680DF068FEDA4908800846B0F90000AE
:1005E000002802DA4FF0FF3070BDFFF720FF002037
:1005F000FAE73EB50446012C0FD1002202A9B3A0B0
:100600000CF0F9FB002201A9B7A00CF0F4FB0022CA
:100610006946BBA00CF0EFFB0EE0002202A99BA0F4
:100620000CF0E9FB002201A99EA00CF0E4FB0022E3
:100630006946A0A00CF0DFFB684909680868DDE99D
:100640000032029903F094F83EBD2DE9F04F95B0C9
:1006500005460C4617469846DDE91E9A02A80CF09E
:1006600091FE2078012802DB2078072804DD4FF076
:10067000FF3015B0BDE8F08F2878FFF7BAFF564875
:10068000006828B9AFA00CF08DFA6FF00100F0E718
:1006900013A83988B8F80020B9F80030BAF800C0BB
:1006A000018042808380A0F806C000BF834602A874
:1006B000009021785B46484A4848006802F01BFFDA
:1006C0000646002E04DAA6A00CF06CFA3046D0E7FD
:1006D00028680290227843A10BA807F0D5FA0020E1
:1006E00002AB2422812100900BA80CF0A1FB00207A
:1006F0000BF012FEA4A00CF055FA3046B9E7F0B5A5
:100700008BB007460C4615461E46002105EB8500BA
:1007100020F00040CDE908410A9107908220C821CD
:1007200042224FF4A073CDE90332CDE905104121F7
:10073000984BCDE9016200916422002138460DF00A
:10074000F9FE00200BB0F0BD2DE9F04F97B0054643
:100750000C4617469846DDF8809014A80021C18009
:1007600081804180018000BF03A80CF00BFE20783F
:10077000012802DB2078072804DD4FF0FF3017B096
:10078000BDE8F08F2878FFF734FF1348006828B9D8
:100790006CA00CF007FA6FF00100F0E716A839889A
:1007A000B8F800200180428000BF824614A803A947
:1007B000CDE9001021785346074A0848006802F046
:1007C000BFFE0646002E04DA65A00CF0EBF93046B9
:1007D000D5E7E1E008000020080100200400002027
:1007E000000000207369676E61747572652564008E
:1007F000436F6C6F72207369676E617475726520E8
:10080000256400005365747320746865206D6178F9
:10081000696D756D20746F74616C20626C6F636BB1
:10082000732073656E7420706572206672616D65E9
:100830002E202864656661756C7420313030302953
:10084000000000004D617820626C6F636B730000E4
:10085000743101104D617820626C6F636B7320708E
:100860006572207369676E617475726500000000BF
:10087000CC3101104D696E20626C6F636B20617228
:100880006561000000002E40E43001104D696E20CB
:1008900073617475726174696F6E00000000F83FD7
:1008A00094320110487565207370726561640000B0
:1008B0001433011053617475726174696F6E207323
:1008C00070726561640000004C3001104343206D7C
:1008D000696E2073617475726174696F6E000000D7
:1008E00000000840C42F0110434320687565207341
:1008F000707265616400000000004940242F0110FF
:1009000043432073617475726174696F6E207370F4
:10091000726561640000000038320110436F6C6F33
:100920007220636F6465206D6F646500C41E0110E2
:10093000676574524C534672616D6500F800002083
:100940000C0000204E6F20726177206672616D6529
:1009500020696E206D656D6F7279210A00000000BC
:10096000436F6C6F722073617475726174696F6E1E
:100970002069736E2774206869676820656E6F75DB
:100980006768210A00000000537563636573732173
:100990000A00000043434231B9F1000F20D06846FD
:1009A0002178BDF85020BDF854E002EB0E0B1FFA81
:1009B0008BF3BDF852C0BDF856E00CEB0E0B1FFADE
:1009C0008BFA018042808380A0F806C0A0F808A0BE
:1009D00000BF0323012269464846FFF790FE00BF8F
:1009E000286803902278AFF204210CA807F04CF994
:1009F000002003AB2422812100900CA80CF018FAEF
:100A000000200BF089FCAFF280000CF0CBF83046F0
:100A1000B5E630B593B0044602A80CF0B3FC2078DC
:100A2000012802DB2078072803DD4FF0FF3013B0E8
:100A300030BD242102A807F033FB2278AFF25C21FD
:100A40000BA807F021F9002002AB2422812100909D
:100A50000BA80CF0EDF90546FFF7D2FC2846E6E7B7
:100A600030B593B002A80CF08DFC242102A807F049
:100A700017FB012415E02246AFF298210BA807F0DE
:100A800003F9002002AB2422812100900BA80CF076
:100A9000CFF90546002D02DA284613B030BD601CA0
:100AA000C4B2072CE7DDFFF7ABFC0020F5E7F0B59B
:100AB00089B004460D4616464FF0FF3007900120DE
:100AC000089008A80BF032FA071E02DA384609B07F
:100AD000F0BDA6B1002007AACDE90302059006905B
:100AE00004200346CDE9010500949948B0F900209F
:100AF0000021984800680DF0B1FB0798E7E7002057
:100B00000422CDE902501346CDE9004204909048FA
:100B1000B0F9002001218F4800680DF09FFB0020F4
:100B2000D5E72DE9F0418AB007460E468A480068AD
:100B300008B1FFF765FC8948006803F0BDFB0020A1
:100B4000B422CDE904020690079002200021CDE9ED
:100B5000001064230203CDE90210814938460DF0EC
:100B600065FF04467E49601801227E49FFF79FFF1A
:100B70008046C4F5005082087948211877480068FB
:100B800003F060FB05460020B421C822CDE907151B
:100B90000692099002204FF4A071CDE90260CDE9E0
:100BA00004104120704964234FF40052CDE9001035
:100BB0006B4938460DF03AFF04EB85026849384628
:100BC0000DF047FF40460AB0BDE8F08110B504467D
:100BD00001212046FFF7A5FF10BD30B504460B46A6
:100BE0002568002102E0505C6854491C186888425E
:100BF000F9D8186830BD2DE9F0438FB007460C4690
:100C000015461E46DDE91689002108EB48008000E4
:100C10004008CDE90B610D910A90822105EB85001A
:100C200020F00040CDE90610C820CDE9084142215E
:100C30004FF4A072CDE90212CDE9041041204B4BD4
:100C400064220021CDE9000938460DF073FC002034
:100C50000FB0BDE8F0832DE9F0410546280244F6C7
:100C60002061B0FBF1F414B90120BDE8F081204609
:100C70000FF044FE804640460FF0CAF807463C4954
:100C80000FF05CFE06460FF02BFE0446FF2C01D948
:100C9000FF2401E004B90124E0B2E6E72DE9FE4FAC
:100CA00000213448006802F0A6FB0446002C46D020
:100CB0002088072804DC20882F4951F8205001E0C3
:100CC0002D480568A0886188401A2189E288891A20
:100CD00000FB01FA5046FFF7BEFF064605F0FF098C
:100CE000B9F1000F04D009FB06F0000A401C00E037
:100CF000002081462D0A05F0FF08B8F1000F04D04E
:100D000008FB06F0000A401C00E0002080462D0A87
:100D1000EFB227B107FB06F0000A401C00E00020FC
:100D20000746F8B2029008F0FF00019009F0FF00BA
:100D300000906A4601A902A80AF0D2FF05E000204F
:100D4000029002A80BF048FF00BFBDE8FE8F000034
:100D50000C000020F8000020080100200000002006
:100D60000000081000200810434351314343423231
:100D700000004842040000206C1F01101CB5002038
:100D800000900123E24A01460190E2A00BF0B4FF7B
:100D90001CBD70B505460C200EF078F8044600F036
:100DA000E4FD0446DF480460DF4928460DF0B7F84B
:100DB0000022DEA1DE4800680DF075FADD490880EA
:100DC0000022DDA1DA4800680DF06DFADC490880E8
:100DD0000022DCA1D64800680DF065FADB490880E6
:100DE000FFF7CCFF002070BD02460B4613B1D84878
:100DF000C2610FE0002105E0082902DB4FF0FF305F
:100E00007047491CD24850F821000028F4D1D0483E
:100E100040F821200020F3E7CE48007810B1CD48FB
:100E200000787047CC48007808B10220F9E700202C
:100E3000F7E70020C949087070470120C7490870CA
:100E4000C44908700020704738B50446207858B16E
:100E50002078082805DC2078401EBD4951F8200084
:100E600010B94FF0FF3038BD0020BD490860207830
:100E7000D8B900226946A7A00BF0BDFF9DF800007D
:100E800018B19DF80000082802DD0020B54908705F
:100E90009DF80000401EAE4951F8200020B19DF899
:100EA0000000401EAF49087003E02078401EAD49A5
:100EB0000870FFF7C2FFD6E770B506460C4630460D
:100EC000FFF7C2FF0546002D01DA284670BDA44990
:100ED000206808600020F9E710B500240CE09C4869
:100EE00050F8240043689A4850F82400611C0268B6
:100EF0009DA00BF057FE641C954850F82400002874
:100F0000EDD110BD10B586B004469A4903C9CDE9AC
:100F10000401BDF81430BDF81220BDF8101096A0E1
:100F20000BF040FE54B1002004AACDE900200623B6
:100F300082220146029020460DF0FCFA002006B005
:100F400010BD7FB504460D4612262088B04203DB53
:100F50004FF0FF3004B070BD9DB1002120888E4B52
:100F600003EBC0004068A123CDE901010093039188
:100F70002088894951F83030A122002128460DF0FF
:100F8000D9FA0020E6E710B586B00446002005AA8D
:100F9000CDE9010203900123009404906548B0F963
:100FA00000200021624800680DF058F9059806B04D
:100FB00010BD1FB5002003AACDE900200346029012
:100FC0006248B0F900200021594800680DF046F948
:100FD000039804B010BD10B5FFF729FA03F0BEFF67
:100FE0000BF036FA0BF0C8FA00F047FAFFF7C6FE2E
:100FF00010BD10B50CF014F84A48006800F05CFD14
:10100000554908700CF096F908B1FFF7E4FF10BDE0
:1010100038B5002401E0601CC4B24D4850F82400EB
:101020000028F8D121463F48006800F04DFEC0B2CC
:1010300000906846FFF708FF38BD1CB50025002664
:10104000FFF7E6FF63E0554800680DF071FC0446C9
:10105000FFF7CFFF052D56D2DFE805F00315343931
:1010600042000020019001A80BF0B6FD38493D4A2E
:10107000127851F8221088688047002801DA032589
:1010800000E0012541E03448007818B1FFF791FFF6
:10109000022516E03148007840B12D49314A1278D6
:1010A00051F82210C8688047002801DA032508E0BB
:1010B0003EB134B9002000906846FFF7C5FE002518
:1010C00000BF22E02448007800B900251DE0002080
:1010D000224908701F490870FFF76BFF042514E0D0
:1010E0001E48007818B1FFF7A8FE00250AE014B1E9
:1010F0002B48007830B9002000906846FFF7A4FE26
:10110000002500BF01E0032500BF00BF26469AE787
:10111000F03A011044656661756C742070726F67F7
:1011200072616D00200000208C1F011072756E002E
:10113000F80000201800002072756E6E696E67005E
:101140001A00002073746F70000000001C00002063
:10115000AC0100201000002013000020110000202E
:10116000140000201200002025643A2025732C2052
:1011700025730A00F420011050697879206669729D
:101180006D776172652076657273696F6E20256474
:101190002E25642E25640A0064200110F40000202E
:1011A000D30000201CB50120019001A80AF0BEFE6A
:1011B0004F48006808B1FFF723F94E48006803F074
:1011C0007BF80020FFF7DFFE00BF03F01DFF0446A1
:1011D0000068012269468368204698470028F4D1B8
:1011E0001CBD7FB503F010FF0446002547E04248D0
:1011F000007810B101283BD117E02068012203A933
:10120000836820469847012800DA7FBD9DF80C00CE
:10121000FF2805D13948007810B9012036490870F7
:101220009DF80C003549087026E02068C16820460A
:10123000884704281BDB2068022202A98368204615
:1012400098472068022201A9836820469847002019
:1012500002A9009068460AF015FE012001A900903D
:1012600068460AF00FFE00202349087000BF03E023
:1012700000202149087000BF00BF681CC5B20A2DBC
:10128000B5DB00BFC1E710B586B01D48006801F0AE
:101290009AFEFFF7A6FF02A804AB03AA05A90090D7
:1012A0001748006802F007F901200299CDE9001003
:1012B0001448DDE9032305990068FFF79CFC03F05F
:1012C000A3FE04460068016920468847FFF7E6FC54
:1012D00001E0FFF786FF074908680168898802680E
:1012E000D288891A0029F4D0002006B010BD000071
:1012F00008010020000000203400002035000020FC
:1013000004000020F400002030B58BB00546012415
:1013100011E0224647A102A806F0B6FC002301AA6C
:101320000AA902A80BF067FD24222846019906F0BD
:1013300040FE641C2435072CEBDD0BB030BD0120D2
:101340003F49087000207047F0B5CDB006463D4FCC
:101350003B48007810B10EA8FFF7D6FF00204FF4ED
:101360007A41B122C823CDE90932CDE90B10022020
:101370004FF4A0710EABCDE90530CDE90710304830
:10138000007808B13F2000E0002094214122CDE9FF
:101390000126CDE903102C4864234FF490323946DE
:1013A00000902A4800680DF041FB0446C8204FF425
:1013B000A0710022CDE900210290C4F590313819C6
:1013C000134621220AF09EFE04F57A4239461F4850
:1013D00000680DF03EFB054600201949087025B94C
:1013E0001B48006808B101200870194805604DB01D
:1013F000F0BD00B587B017480068A8B92120069055
:101400000020059004904FF4A0700390C820029033
:101410000E48006802A9CDE9001003AB04AA05A993
:1014200006A80BF011FA02E00120FFF78DFF002063
:1014300007B000BD7369676E6174757265256400DD
:101440003800002000000810434D5631F400002001
:101450004C0000201400002038B504464FF4FA7008
:101460002060208880B20090694604F108000AF0EC
:1014700009FD38BDC160026170471FB500204FF4FF
:10148000FA71042377A2CDE90010014684A00BF085
:1014900033FC00204FF44871042384A2CDE90010EE
:1014A000014690A00BF028FC00204FF42F7104237C
:1014B0008FA2CDE9001001469CA00BF01DFC00207E
:1014C0004FF4617104239CA2CDE900100146A9A04C
:1014D0000BF012FC002203A971A00BF08CFC00227F
:1014E00002A980A00BF087FCA548DDE90221FFF7E7
:1014F000C1FF002203A98DA00BF07DFC002202A9F0
:101500009CA00BF078FC9F48DDE90221FFF7B2FFB9
:101510001FBD08B50120009068460AF007FDFFF7DF
:10152000ACFF9748FFF798FF9648FFF795FF96485E
:10153000006808B1FEF764FF9448006802F0BCFE42
:101540000020FFF720FD002008BDF8B504460D4639
:101550006068B0F1004F22D06068281A21694843C2
:10156000E16805FB01004FF47A7190FBF1F6206809
:10157000304420602068B0F57A7F02DD08462060A4
:1015800004E02068002801DA00202060208880B272
:101590000090694604F108000AF074FC00BF656021
:1015A000F8BD2DE9F04186B07948006801F00BFDE7
:1015B00000217748006801F01EFF0446E4B1A188CD
:1015C0006288881A00EBD07102EB61018FB2218929
:1015D000E288881A00EBD07102EB61011FFA81F8F2
:1015E000C7F1A005A8F1640629466548FFF7ADFFDD
:1015F00031466448FFF7A9FF02A804AB03AA05A976
:1016000000906348006801F056FF01200299CDE97F
:1016100000106048DDE9032305990068FFF7EBFA45
:10162000FFF73CFB002006B0BDE8F08110B54FF499
:10163000FA7404600172C26003616407446010BD03
:1016400000B54FF448734FF4FA7200214C48FFF78D
:10165000EDFF4FF461734FF42F7201214948FFF7FA
:10166000E5FF00BD40632050616E2F74696C745FAC
:1016700064656D6F2050616E2061786973207072AF
:101680006F706F7274696F6E616C206761696E2034
:101690002864656661756C7420353030290000005F
:1016A00050616E2050206761696E000040632050D9
:1016B000616E2F74696C745F64656D6F2050616E2C
:1016C00020617869732064657269766174697665F2
:1016D000206761696E202864656661756C742038C6
:1016E0003030290050616E2044206761696E00002F
:1016F00040632050616E2F74696C745F64656D6F18
:101700002054696C7420617869732070726F706FF7
:101710007274696F6E616C206761696E2028646500
:101720006661756C742037303029000054696C7420
:101730002050206761696E0040632050616E2F74F5
:10174000696C745F64656D6F2054696C7420617896
:101750006973206465726976617469766520676172
:10176000696E202864656661756C74203930302993
:101770000000000054696C742044206761696E00A9
:10178000CC010020E0010020080100200000002022
:1017900004000020F4000020F0B505AC70CC02F08D
:1017A0000107AFB101F001074FB11F78276013F8AF
:1017B000017C2F601F1A17F8017C37601DE013F8B9
:1017C000017C27601F782F601F1A3F78376014E074
:1017D00001F0010747B11F1A3F7827601F782F607B
:1017E00013F8017C376008E01F1A17F8017C2760A6
:1017F00013F8017C2F601F783760F0BD2DE9F04FA2
:1018000088B0074688469146FE48006803904FF02E
:10181000000AD346002004900026612520E09D2484
:101820001BE005A806A907AACDE9002102904FF404
:10183000A071039801FB050003192A4621464FF4C5
:10184000A070FFF7A9FF0798824406988344DDE95A
:10185000040108440490641C761CA32CE1D36D1C85
:10186000672DDCD3BAFBF6F03870BBFBF6F088F8D6
:1018700000000498B0FBF6F089F8000008B0BDE85D
:10188000F08F2DE9F04F87B004460D4616462078BC
:101890003178884202DA94F8008001E096F80080FE
:1018A0002878404501DA95F8008008EB4800C11718
:1018B00000EB9171C1F387092078A0EB090020703B
:1018C0002878A0EB090028703078A0EB0900307070
:1018D00020783178884201DD277800E03778287851
:1018E000B84200DD2F7838460EF098FE02460B46CF
:1018F000CDE900010020C4490EF038FDCDE9020118
:101900000EF002FD824620780EF0F8FF514603905B
:101910000FF014F8834628780EF0F0FF514603903C
:101920000FF00CF8059030780EF0E8FF5146039068
:101930000FF004F8049058460EF0D2FF207005987E
:101940000EF0CEFF287004980EF0CAFF307007B07A
:10195000BDE8F08F38B5044600202072009068463C
:101960000BF03AF90020207038BD10B5044620462F
:10197000FFF7F0FF204610BD704738B505460C460E
:1019800068460EF0FBFA00BF00980EF039FAA0424C
:10199000FAD30BF045FB38BDF8B504460D460026DA
:1019A00015E00020009068460BF016F94EF6602115
:1019B0002046FFF7E2FF6178944A02EB81000BF0CA
:1019C0000BF94EF660212046FFF7D7FF761CAE429A
:1019D000E7DBF8BDF0B587B0054600200690A020F3
:1019E0000590642004908A480068009004AB05AA22
:1019F000691C06A8FEF7A8FE0446002C1BDD214644
:101A000084A00BF0CFF80AF051FF029020460EF0B0
:101A10006EFF074683490EF091FF06460EF060FF09
:101A2000039003A80AF052FF04212846FFF7B4FFF1
:101A300002A80AF04BFF07B0F0BD38B50446607845
:101A4000072800DD38BD0020009068460BF0C4F880
:101A50004EF660212046FFF790FF61786B4A02EB5B
:101A600081000BF0B9F800BFECE770B586B0044612
:101A7000684661789D22A325612367260180428004
:101A80008580C380068100BF01231A4669466048ED
:101A90000068FEF734FE03AA04A905A8FFF7AEFE0E
:101AA00003AA04A905A8FFF7ECFE03AA04A905A848
:101AB0000AF016F906B070BD30B589B004460EF0D4
:101AC00037F80546207AD0B12120089000200790F1
:101AD00006904FF4A0700590C820049000204C4957
:101AE000096804AACDE90021029005AB06AA07A95E
:101AF00008A80AF079FF2046FFF7B7FF19E0207821
:101B0000B8B1212008900020079006904FF4A070F3
:101B10000590C820049001203D49096804AACDE938
:101B20000021029005AB06AA07A908A80AF05CFFED
:101B300000BF2078062864D2DFE800F00310397C6B
:101B40008DB555B1201D0EF019FA0120207000202E
:101B5000089008A80BF040F800BFADE085B9002060
:101B6000207031480AF030F82F480068401C2E4998
:101B70000860084600680D2818D90120086015E0A3
:101B800060680EF03DF9294988420FD909F092FFAB
:101B900010B10120607001E000206070201D0EF087
:101BA000EDF92046FFF749FF0220207084E09DB93F
:101BB00003212046FFF7F0FE201D0EF0DFF96078CC
:101BC00028B90120089008A809F0D0FF01E0012001
:101BD00020720320207013E060680EF011F91449A0
:101BE00088420DD9201D0EF0C9F96078401C607044
:101BF0006078082801D1002060702046FFF71DFFA3
:101C00005AE055E00801002000E06F406C1F011011
:101C1000F4000020676F6F646E6573733D25640A7E
:101C2000000000000000484360000020D0121300B4
:101C300040420F002DB1201D0EF0A0F904202070AD
:101C400008E060680EF0DCF85049884202D920466E
:101C5000FFF780FE30E095B9607848B90020089021
:101C600008A809F083FF04212046FFF795FE02E053
:101C70002046FFF7AFFE2046FFF76CFE12E06068DB
:101C80000EF0BEF8424988420CD9607828B900208D
:101C9000089008A809F06AFF00BF2046FFF75AFE27
:101CA0000520207008E015B92046FFF753FE03E039
:101CB0002046FFF74FFE00BF00BF207810B1012083
:101CC00009B030BD0020FBE72DE9F04104460D4688
:101CD000012D02DC0020BDE8F08156E00DF028FF68
:101CE00006460BF09DF9207820B101280BD0022880
:101CF00046D124E0201D0EF041F90120207020463D
:101D0000FFF79BFE40E056B1201D0EF037F9012091
:101D100060702046FFF791FE022020700EE06068A0
:101D20000EF06EF81B49884208D904212046FFF7BF
:101D300033FE2046FFF70EFE0020CCE724E04EB92C
:101D4000677804212046FFF727FE2046FFF702FEB2
:101D50003846C0E760680EF053F80F4988420ED944
:101D6000201D0EF00BF96078401C60706178681CD3
:101D7000814201D1012060702046FFF75EFE03E042
:101D80002046FFF7E7FD00BF00BFA7E700879303EA
:101D9000D012130060E3160040420F0070B50446F5
:101DA00000BF0020206200BF401EA082400C608265
:101DB00020828111A08861F3CB00A080608961F34B
:101DC000CB00608105E0A569A868A06128460DF0F8
:101DD00050F8A0690028F6D104F11800E06170BD48
:101DE00010B504460020A06104F11800E06120460F
:101DF000FFF7D4FF204610BD10B504462046FFF77C
:101E0000CDFF204610BD4189C1F3C80140F2FF1249
:101E1000914208D0D0F80A104160C18901814189FE
:101E200062F3CB014181704710B5B0F910408C428C
:101E300001DD0CB20482B0F91240944201DD14B20B
:101E40004482B0F914409C4201DA1CB2848210BD75
:101E5000F8B504460D46A888C0F309032888C0F3E6
:101E6000C8026888C0F309012046FFF7DDFF6089DA
:101E7000C0F3C80040F2FF11884205D12868C4F8B9
:101E80000A00A888E08103E0A888C0F30900E08187
:101E900000BF6A88C2F30902501EAA88C2F3090172
:101EA0000A1A009200BF694604F120000CF0C8FF36
:101EB000F7480078D8B1F7490C200CF0FBFF06007A
:101EC00009D0304629680160A9888180002181609D
:101ED00000BF064600E00020E1690860E069006894
:101EE00000B9F8BDE06900680830E06100BF00BFDC
:101EF000F7E770B505460C4604F1200105F1200016
:101F00000CF09EFFB4F91430B4F91220B4F910109B
:101F10002846FFF789FF2089C0F309012889C0F30B
:101F20000900814203DD2089C0F309002881D848D7
:101F3000007848B1A069E9690860E069E8610020BB
:101F4000A06104F11800E06170BD002101618160B1
:101F50004160011DC1604FF0FF310180012181828C
:101F600000218161704770B50446606800B905E0E2
:101F70004FF4E972C8A1CEA005F09AFF0020A0603E
:101F8000401E20800020A0610BE0206905682069C8
:101F900028B12069FFF730FF06460CF06AFF256183
:101FA00000BF20690028F0D170BD10B503460BE0DA
:101FB0005868FFF728FF586804685968186908606E
:101FC000586818615C6000BF58680028F0D110BDE7
:101FD00010B504462046FFF7E8FF2046FFF7C3FF91
:101FE000204610BD30B503460D4615E02C6820464E
:101FF000FFF709FFB3F90000A188C1F3C801401A37
:10200000B3F91410884205DD206828601869206043
:102010001C6100E030BD00BF28680028E6D100BF89
:10202000F8E710B50446A068E060E0680068A060CA
:10203000A06818B12046A168FFF7D4FF10BD10B505
:102040000446211D2046FFF7CDFF201DE060E0681B
:102050000068A060A06818B12046A168FFF7C2FF21
:1020600010BD2DE9F04704460D462888C0F3C8008E
:10207000B4F90010884206D02888C0F3C800208038
:102080002046FFF7DCFF40E06888C0F30901A06844
:102090000089C0F30900814203DD2046FFF7C1FF3C
:1020A00033E0A888C0F30901A068C088C0F3090024
:1020B000814200DA2CE02946A068FFF7C9FE14E04F
:1020C000A06807683868A16808603946A068FFF70B
:1020D00010FF2FB13846FFF78FFE81460CF0C9FE86
:1020E0002046A168FFF77EFF00BFA068006848B1E6
:1020F000A888C0F30901A0680068C088C0F309007F
:102100008142DDDA0020BDE8F087A0680028BBD15D
:1021100000BF604924200CF0CDFE5FEA000804D027
:102120004046FFF75DFE804600E00020064636B9D7
:1021300063A0A1690AF036FD4FF0FF30E3E7A06924
:10214000401CA061A0683060E0680660E660294637
:102150003046FFF77DFE0020D5E70246002001E073
:10216000401C09680029FBD1704770B5054614462C
:102170001960216008461A4608E0066806B906E0BC
:1021800000681268066806B901E00068F5E700BF5C
:1021900016681E600026166070BDF0B50646059DE7
:1021A0002C46284638E034B30F6827B3B0B117681F
:1021B000A7B117683F6AD1F800C0DCF820C06745B6
:1021C0000CDD1768D3F800C0CCF800701F683F68BA
:1021D0001F601F683F681760401E1DE00F68D3F83E
:1021E00000C0CCF800701F683F681F601F683F6820
:1021F0000F60641E10E070B1176867B11768D3F8FC
:1022000000C0CCF800701F683F681F601F683F68FF
:102210001760401E00E0F0BDC5E730B587B004464A
:10222000206908B907B030BD05AB06AA2046216970
:10223000FFF79BFF012524E000200490039004A8F1
:10224000029003A801900DE002AB05AA06A9204662
:102250000095FFF7A2FF01AB05AA06A9204600954D
:10226000FFF79BFF06980028EED105980028EBD1D8
:1022700001990860029908600498069003980590F7
:102280006D0005980028D7D10698206100BFC9E7E6
:102290006C000020BD2C01102E2E5C2E2E5C636F76
:1022A0006D6D6F6E5C626C6F622E6370700000000B
:1022B00021616374697665426C6F6273000000008F
:1022C000626C6F62732025640A00000070B50646D8
:1022D000306900B970BD35692C680DE0286A216A43
:1022E000884200DB06E040F2CB12AFF2540104A0BA
:1022F00005F0DEFD25462C68002CEFD100BFE9E794
:10230000692D3E6D6F6D656E74732E61726561200F
:102310003E3D206A2D3E6D6F6D656E74732E617249
:10232000656100002DE9F04104460E4607231C229A
:10233000FE49201D0CF0EDFD041F0020BC34A077E9
:102340001420A06264202084142060840520A085CD
:102350000620E085012084F83000E6604FF47A70B2
:102360000CF08BFD20610020A082A084E08444203A
:102370000CF08CFD0746EE4901F0D8F9074644F809
:10238000BC0D002507E0C5EBC502211D01EB820055
:10239000FFF7E9FD6D1C072DF5DB2046BDE8F08158
:1023A00070B50446206828B1206801F0E0F90546C0
:1023B0000CF05FFDD4F8CC000CF057FD07231C2275
:1023C000DC49201D05F0EAFE204670BDF0B506464A
:1023D0000B461446002500210022002022E033F89D
:1023E00011702FB90AB903EB4102471CB8B215E0CE
:1023F0009AB133F8117017804F1C33F8177057805B
:102400008F1C33F817709780CF1C33F81770D78064
:102410000F1D33F8177017810A3200BF6F1CBDB251
:102420004F1DB9B2A542DADBF0BD2DE9FE4F0C46D7
:102430001546A1886288881800EBD0714E1021895A
:10244000E288881800EBD0714F10A9886A88881834
:1024500000EBD0714FEA61082989EA88881800EBFF
:10246000D0714FEA6109A7EB09000EF040FA009025
:10247000A8EB06000EF03BFA0190DDE900010DF03B
:102480004DFB8346AC490EF059FAAC4902900EF070
:1024900017FA824650460EF01CFA00B2BDE8FE8FD5
:1024A0002DE9F0418AB0064600200024002521E0F5
:1024B00051F82080274604F1010C1FFA8CF44DF8E6
:1024C0002780431C10E051F823703F7807F007077E
:1024D00051F820C09CF800C00CF0070C674501D1F2
:1024E000012500E004E05B1CB2F900709F42EADCC9
:1024F00000BF1846B2F90070874201DD0A2CD7DB15
:1025000055B1002004E05DF8207041F82070401CB7
:10251000A042F8DB27B217800AB0BDE8F0812DE9B0
:10252000F04106461C469CB18F88B1F802C007EB0B
:102530000C0505EBD5777F10B2F804C0B2F8028025
:102540000CEB080000EBD07CA7EB6C073BB212E071
:102550000F89B1F806C007EB0C0505EBD5777F10A6
:10256000B2F808C0B2F806800CEB080000EBD07C93
:10257000A7EB6C073BB2002B03DA584200B2BDE870
:10258000F0811846FBE72DE9F04F85B082460D46F5
:1025900016461F4600240BE055F8242039465046C5
:1025A0000E9BFFF7BCFF80B22DF81400601C84B2B4
:1025B000B44201DA0A2CEFDB28E00124A3461DE037
:1025C000601E3DF810003DF81410884214DD3DF8FF
:1025D0001480601E3DF810002DF81400601E2DF8C8
:1025E000108055F8249055F8200045F82400601E0E
:1025F00045F820904FF0000B601C84B2B44201DA21
:102600000A2CDDDBBBF1000F00D000E0D5E700BFF6
:1026100005B0BDE8F08F2DE9F04F8CB014460020D6
:102620008246CDF828A0CDF82CA05CE051F820A07F
:10263000BAF804A051F820B0BBF802B0AAEB0B0A1C
:1026400051F820B0BBF808B051F820E0BEF806E021
:10265000ABEB0E0B0AFB0BF24FF0640A02FB0AFA1B
:102660004FF4FA7BBAFBFBF74FF4C87A02FB0AFA85
:102670004FF0640BBAFBFBFA0AEB020C00230026B6
:1026800022E0984200D11EE051F823A0BAF804A03D
:1026900051F823B0BBF802B0AAEB0B0A51F823B0F3
:1026A000BBF808B051F823E0BEF806E0ABEB0E0B28
:1026B0000AFB0BF8474505D8E04503D806F1010AA7
:1026C0001FFA8AF600BF5B1CB4F900A09A45D8DC5B
:1026D000DDF828A0564505DD0A9691464FF0010A1F
:1026E000CDF82CA0401CB4F900A082459EDCDDF89A
:1026F0002CA0BAF1000F03D14FF0000AA4F800A0FB
:102700000020002540E051F820A0BAF804A051F8BC
:1027100020B0BBF802B0AAEB0B0A51F820B0BBF80E
:1027200008B051F820E0BEF806E009E0EB1D00100B
:1027300000200810711E001000003443560E49405E
:10274000ABEB0E0B0AFB0BF24FF0640A02FB0AFA2A
:102750004FF4FA7BBAFBFBF74FF4C87A02FB0AFA94
:102760004FF0640BBAFBFBFA0AEB020C4F450AD898
:10277000E14508D851F820B0AA4605F1010E1FFA2C
:102780008EF54DF82AB0401CB4F900A0824501DD59
:102790000A2DB8DB002004E05DF820A041F820A05D
:1027A000401CA842F8DB0FFA85FAA4F800A00CB090
:1027B000BDE8F08F70B503460C46D3F8CC1000206E
:1027C00013E000EB800531F8155025F00705954220
:1027D0000AD100EB800511F8155005F007052543D7
:1027E00000EB800621F81650401CB3F8D05085420B
:1027F000E7DC70BD2DE9F04782460D461646688835
:1028000001B2A88807B2E88802B228890FFA80FCD2
:10281000708803B2B0880FFA80F8F08804B230896B
:102820000FFA80F999420EDBA24201DC644505DD16
:102830004A4508DCE14501DD944204DCA1EB0800D7
:1028400000B2BDE8F0878B420CDBA24201DC64459C
:1028500005DD4A4506DCE14501DD944202DCD81B7A
:1028600000B2EEE7A2420DDB994201DCBB4205DD7E
:10287000414507DCB84501DD8B4203DCA2EB0900D2
:1028800000B2DEE794420DDB994201DCBB4205DD7C
:10289000414507DCB84501DD8B4203DCA4EB0C00AD
:1028A00000B2CEE747F6FF70CBE770B504460D46A1
:1028B0001646288828B1308818B12888318888427F
:1028C00001D1002070BD94F8EC00022807D02A78CE
:1028D00002F00701206801F010FC01280BD194F8E8
:1028E000EC00022809D0327802F00701206801F0DC
:1028F00004FC012801D00020E4E7324629462046A6
:10290000FFF778FFB4F8EA10884201DC0120D9E72C
:102910000020D7E72DE9F04F95B006460020129031
:1029200056F8CC0FB18801EB810100EB410A56F853
:10293000CC493FE004F10A0739E03A4621463046E7
:10294000FFF7B3FF20B32088072814DC3888072856
:1029500011DC1298401C80B212904FF6FF71129851
:1029600001EAC009208840EA09002080388840EA4E
:10297000090038801AE0208807280ADD38880728EF
:1029800007DC208820F00709388840EA09003880F1
:102990000CE03888072809DD2088072806DC3888FD
:1029A00020F00709208840EA090020800A375745AF
:1029B000C3D30A345445BDD3D6F8CC4025E0208893
:1029C000072800DC20E0208820F0070904F10A072E
:1029D00017E03888072800DC12E0388820F007006C
:1029E0001390139881450AD03A4621463046FFF7A6
:1029F0005CFF20B149463046139AFFF7DBFE00BF6B
:102A00000A375745E5D300BF0A345445D7D3D6F823
:102A1000CC0000F577700B904FF0010BD6F8D48006
:102A20000020A6F8D8001FE14FF6FF7000EACB099E
:102A300000201490D6F8CC400EE0208820F007004B
:102A4000484508D1BDF9501088B2401C00B214901E
:102A500001A840F821400A34544503D2BDF9500082
:102A60000A28EADB14AA01A93046FFF7D4FDBDF914
:102A70005000022800DAF3E0002500200E900F90AD
:102A8000109011902DE001A9119851F82000408874
:102A900051F825104988884200DD119501A90F9849
:102AA00051F82000C08851F82510C988884200DDFF
:102AB0000F9501A9109851F82000808851F8251031
:102AC0008988884200DA109501A90E9851F82000F3
:102AD000008951F825100989884200DA0E95681C92
:102AE00005B2BDF950008542CDDB01A9119851F81E
:102AF00020004088A8F80200109851F82000808833
:102B0000A8F804000F9851F82000C088A8F8060023
:102B10000E9851F820000089A8F80800109851F884
:102B20002000818801AA119852F820004088091AD3
:102B30000E9852F82000028901AB0F9853F820003C
:102B4000C088101A81420CDD012001A90090119863
:102B500051F82030BDF8500082B23046FFF713FD27
:102B60000BE0002001A900900F9851F82030BDF82B
:102B7000500082B23046FFF706FD14AA01A9304684
:102B8000FFF78EFCBDF95000022800DA68E0BDF9BD
:102B90005000052801DD05201490002500200D902F
:102BA00010E04FF6FF710D9801EAC0000D9001A8EA
:102BB00050F82500007800F007000D9908430D90AB
:102BC000681C05B2BDF950008542EADBBDF8500033
:102BD000401E05B200200C9015E04FF6FF710C98D6
:102BE00001EAC0000C9001A850F82500007800F020
:102BF00007000C9908430C90002001A951F82510FA
:102C00000880681E05B2002DE7DADDE90C10884265
:102C10000FDA0D98A8F80000BDF95000401E01AB76
:102C200053F8202030460199FFF7FFFBA8F80A006F
:102C30000EE00C98A8F80000BDF95000401E01AB52
:102C400053F820103046019AFFF7EFFBA8F80A006E
:102C500008F10C08B6F8D800401CA6F8D80000BF50
:102C60000BF101000FFA80FB1298834503DC0B98EF
:102C70008045FFF4D9AED6F8CC4019E096F8EC00C8
:102C8000032805D12088072811DD002020800EE0D0
:102C90002088072809DC96F8EC00022805D0217866
:102CA000306801F02AFA012801D1002020800A347E
:102CB0005445E3D315B0BDE8F08F2DE9FC4F96469F
:102CC000002400220020009053E031F8120000B9E7
:102CD0004BE0501C31F81050901C31F81060D01CA3
:102CE00031F81070101D31F810C0601C80B20190D6
:102CF000501D83B235E031F8130000B92BE0581CA9
:102D000031F81080981C31F81090D81C31F810A0C0
:102D1000181D31F810B045450DDC4E450BDB57450D
:102D200009DCDC4507DB002021F813000098401C7B
:102D300080B200900EE0A8450CDCB1450ADBBA4534
:102D400008DCE34506DB002021F812000098401C57
:102D500080B2009000BF0198401C80B20190581DC5
:102D600083B201987045C6DB00BF601C84B2501D61
:102D700082B27445A9DB0098BDE8FC8F2DE9F74FBE
:102D800083B082460020029000230090A5E031F835
:102D9000130000B99BE0581C31F810C0981C31F8A2
:102DA0001080D81C31F81090181D31F810B002981E
:102DB000401C80B20190581D82B281E031F81200AF
:102DC00000B977E0501C31F81040901C31F81050D9
:102DD000D01C31F81060101D31F81070644518DCFB
:102DE000ACEB0500BAF8E8E0704512DCB14501DC57
:102DF0005E4503DDB9450CDC5F450ADC581C21F853
:102E00001040002021F812000098401C80B2009071
:102E10004FE0454518DBA4EB0800BAF8E8E0704540
:102E200012DCB14501DC5E4503DDB9450CDC5F45D4
:102E30000ADC981C21F81050002021F8120000989C
:102E4000401C80B2009034E04E4518DCA9EB07002E
:102E5000BAF8E8E0704512DCA44501DC444503DD26
:102E6000AC450CDC45450ADCD81C21F8106000207C
:102E700021F812000098401C80B2009019E05F45D4
:102E800017DBA6EB0B00BAF8E8E0704511DCA445AF
:102E900001DC444503DDAC450BDC454509DC181D70
:102EA00021F81070002021F812000098401C80B218
:102EB000009000BF0198401C80B20190501D82B26A
:102EC000DDF814E001987045FFF678AF00BF029876
:102ED000401C80B20290581D83B2DDF814E00298C5
:102EE0007045FFF654AF009806B0BDE8F08FFEB510
:102EF00005464FF0FF36002700244EE000BF69462C
:102F0000D5F8C80001F079F90028F8D00098401CE5
:102F100000B943E0641C009808B9761C3DE09DF8B8
:102F20000410009860F302018DF804109DF804006D
:102F300000F0070000282FDD77BBBDF8040066F322
:102F4000CB00ADF804000098C00800900098C0F3D2
:102F50000800ADF806000098400A00900098C0F301
:102F60000800BDF80610C1F309010844ADF80800D7
:102F70009DF8041001F00701491EC1EBC102291D93
:102F800001EB820001A9FFF76CF8002804DA0127A1
:102F90002146FEA009F006FE00BFAFE700BF0024F7
:102FA0000EE0C4EBC402291D01EB8200FEF7FDFF19
:102FB000C4EBC402291D01EB8200FFF72EF9641C4B
:102FC000072CEED3FEBD2DE9F04F87B00446204616
:102FD000FFF78DFF4FF0000A0120D034A0720025CA
:102FE000002020802081D03C89E094F8EC00022869
:102FF00006D06A1CD1B2206801F07FF8012801D107
:10300000012000E000208146CC34A08800EB80063F
:103010004FF0000B206800EB46000690A088CC3CE7
:103020000590C5EBC501201D00EB8100076942E05A
:10303000B9F1000F03D000BF386A0A2808DBB9F1E4
:10304000000F06D100BF386AD4F8E410884200DAD5
:103050002EE001A8398A0491798A0391B98A0291F4
:10306000B988C1F3C801018000BF681C54F8CC1FA7
:1030700021F81600BDF81010701C226822F81010FC
:10308000BDF80810B01C226822F81010BDF80C1012
:10309000F01C226822F81010BDF80410301D2268C0
:1030A00022F81010A088401CA080CC3C761D00BFE8
:1030B0003F680BF1010B4FB1B4F8D000B4F8DC104D
:1030C000884203DAB4F8DE005845B1D8B9F1000FF0
:1030D00014D111E0B4F8D0100598081A82B2204635
:1030E0000699FFF74BFE8046B8F1000F00D104E0CF
:1030F0000AEB08001FFA80FAECE700BF6D1C072DF1
:10310000FFF473AFB4F8D0202046D4F8CC10FFF70A
:10311000D4FD50441FFA80FA94F8EC0058B154F8EA
:10312000CC0FA18801EB810100EB4100A060CC3CF9
:103130002046FFF7EFFBBAF1000F02D194F8EC0044
:1031400068B1B4F8D0202046D4F8CC10FFF73EF98F
:103150008046B4F8D000A0EB0800A4F8D00000200E
:10316000DA34E080208104F8DA09002507E0C5EBB5
:10317000C502211D01EB8200FEF7F5FE6D1C072D37
:10318000F5D307B0BDE8F08F2DE9F04703468C4634
:10319000904661460827B8F1120F02D20020BDE820
:1031A000F08793F8DA0028B9B3F8E200B3F8D890C2
:1031B000484504DB0020088048800220EFE7B3F890
:1031C000E00040B9B3F8E20028B94AF6552008807B
:1031D000781C87B2891C4AF65620088053F8D40F11
:1031E000B3F80E9009EB490930F8292014468A807B
:1031F000B3F80E9009EB4909186800EB8900808844
:10320000B3F80EA00AEB4A0AD3F8009009EB8A093A
:10321000B9F80290A0EB090085B2601984B24D8123
:10322000B3F80E9009EB4909186800EB8900008992
:10323000B3F80EA00AEB4A0AD3F8009009EB8A090A
:10324000B9F80690A0EB090086B2A01984B28E816D
:10325000B3F80EA00AEB4A0AD3F8009009EB8A09EA
:10326000B9F80290284605EBD07A09EB6A091FFAF3
:1032700089F2A01884B2CA80B3F80EA00AEB4A0AF9
:10328000D3F8009009EB8A09B9F80690304606EBAE
:10329000D07A09EB6A091FFA89F2A01884B20A8170
:1032A000B3F80E9009EB4909186800EB89004089D2
:1032B00082B2A01884B2CA814C80D889401CD881BF
:1032C000D43B4FF6FF7000EA470068E72DE9F74F5F
:1032D0000446019D4FF0070BB4F8E00000EB8007B7
:1032E0000298102802D20020BDE8FE8FB4F8E0005A
:1032F000B4F8D010884208DB94F8EC0028B12046DE
:10330000DDE90112FFF740FFEEE794F8DA0028B993
:10331000B4F8E000B4F8D010884204DB0020288024
:1033200068800220E0E7B4F8E00038B94AF655209A
:1033300028800BF101001FFA80FBAD1C4AF65520D6
:10334000288054F8CC0F30F81760B046AE80B81C17
:10335000216831F81010781C226832F81000081A21
:103360001FFA80F908EB09001FFA80F8A5F80A9007
:10337000381D216831F81010F81C226832F810004E
:10338000081A1FFA80FA08EB0A0007E06865617006
:103390002066756C6C2025640A0000001FFA80F816
:1033A000A5F80CA0791C226832F81110484609EBE8
:1033B000D07201EB62018EB208EB06001FFA80F8B2
:1033C000EE80F91C226832F8111050460AEBD072D8
:1033D00001EB62018EB208EB06001FFA80F82E8125
:1033E000A5F80280A08A401CA082CC3C4FF6FF705A
:1033F00000EA4B0078E72DE9F04302460D4600272E
:10340000BC46002100237DBBB2F8D00000280EDDB1
:10341000D2F8CC108888B1F80280A0EB0800B1F88F
:103420000880B1F80690A8EB090800FB08F7B2F88D
:10343000D80000280EDDD2F8D4309888B3F8028086
:10344000A0EB0800B3F80880B3F80690A8EB0908D1
:1034500000FB08FC92F8EC00022806D113B11846D4
:10346000BDE8F0830020FBE70FE092F8EC0020B904
:1034700009B10846F4E70020F2E7674501D908469C
:10348000EEE7BC4515D91846EAE7002600240CE013
:10349000D2F8CC0030F81400A84204D1D2F8CC0005
:1034A00000EB4400DCE7761C641DB2F8D000B042AB
:1034B000EEDC0020D4E730B5039C50F8CC5F0D6003
:1034C0008588156085681D608589CC38256030BD8C
:1034D00030B50446039D642902DCA4F8DC1002E048
:1034E0006420A4F8DC00A4F8DE20C4F8E43084F8FA
:1034F000EC50002030BD2DE9F04389B005460E4662
:1035000090469946109F684609F03CFF072E04DD5F
:103510004FF0FF3009B0BDE8F0834B4642466946A4
:10352000286800F06AFA044614B94FF0FF30F1E75A
:1035300027B124226946384604F080FD2046E9E799
:103540002DE9F0478CB004468A4690469946DDE95D
:1035500014560AA80021C18081804180018000BFEB
:1035600001A809F00FFF4B4642460AA9206800F067
:10357000AAFB0AAB424601A9206800F03EFA0746C2
:1035800027B94FF0FF300CB0BDE8F0871EB10A98A4
:1035900030600B98706025B1242201A9284604F000
:1035A0004DFD3846EFE72DE9FF4F83B00D469246BB
:1035B0001E46DDF840B000200190804647F6FF70BF
:1035C000009044E000243CE04FF00009002002900D
:1035D00018E055F8290056F8241088420BD055F809
:1035E0002900007800F0070056F82410097801F04F
:1035F0000701884202D10120029005E009F1010093
:103600000FFA80F9D145E4DB00BF029800B116E063
:1036100056F8242055F828100398FFF7EBF80746D2
:1036200000998F420ADA009755F828101198016026
:1036300056F82410129801600120019000BF601C10
:1036400004B25C45C0DB08F101000FFA80F8D045F8
:10365000B8DB019807B0BDE8F08FD0F8CC10704708
:1036600010B50446002120460DF050F901D2FE4865
:1036700010BD4FF07E50FBE77FB5039901980DF028
:103680005DF90446029900980DF058F90546214667
:103690000DF001F904B070BD2DE9F04107460D466B
:1036A0003C460AE0204604F00FFA06461EB12C60A4
:1036B0003046BDE8F081A4F58074002CF2DA0020D9
:1036C000286000BFF5E72DE9FF41029900980DF051
:1036D000ABF90546039901980DF0A6F90646314667
:1036E00030460DF02BF90746294628460DF026F9FD
:1036F000804639460DF0CFF8044620460CF074FCA5
:1037000004B0BDE8F08110B5024600200AE029B1FE
:1037100013681B5C03F007038B4202D1002314687B
:103720002354401CB0F5803FF1D310BD30B50446A2
:103730000D462560CD48E0624FF07E502063606307
:10374000CB48A0634FF08040E063CA48206400216A
:103750002046FFF7D8FF002005E0002204F1100109
:1037600041F82020401C0728F7DB204630BD704779
:1037700010B50446A16322636363002010BD2DE9E8
:10378000F84F05460F469146002148460DF02FF9A7
:1037900001D2012000E000208246002400262EE015
:1037A000696801EB440191F900000DF0A0F8009068
:1037B00039680DF0C3F8834679680DF06CF88046DF
:1037C000BAF1000F0DD0696801EB440191F90100D5
:1037D0000DF08DF8834641460DF098F80ED2761C18
:1037E0000CE0696801EB440191F901000DF07FF8EC
:1037F000834641460DF0FBF800D2761C641CA86895
:10380000A042CDD83046BDE8F88F2DE9FF470446E9
:103810001D461FE0A0680DF071F881462846FFF7AD
:103820001FFF8246524601A92046FFF7A8FF8046A7
:103830000DF064F8074649460DF042F8064630465A
:10384000216C0DF0D4F800D805E0294602980DF05F
:1038500022F80290DEE700BF029804B0BDE8F087CE
:1038600070B506460C46206820F000410D4682499E
:1038700028460DF04BF809D2002120680DF0B7F86A
:1038800002D27D48206001E07C48206070BD2DE9B7
:10389000FC4104460E46002500200190009018E0EF
:1038A000616801EB450191F900000DF020F8074631
:1038B00001990CF0F0FF0190616801EB450191F96D
:1038C00001000DF014F8074600990CF0E4FF009099
:1038D0006D1CA068A842E3D8A0680DF00FF8074659
:1038E000394601980CF0ECFF0190A0680DF006F845
:1038F0000746394600980CF0E3FF009001A92046E6
:10390000FFF7AEFF69462046FFF7AAFF0198306037
:1039100000987060BDE8FC812DE9FC4F1446B4F8B6
:1039200002B04BF0010BB1F904E0D1F800A00BFBA1
:103930000EAAB4F800B04BF0010B0AEB0B05002601
:1039400000234FE0002240E0AF5CA2F1010A15F82D
:103950000AC0B1F904A0CAF1000A924415F80A801D
:10396000B1F904A0CAF1000A9244AAF1010A15F8BB
:103970000A9007EB0C0AAAF17F0ACDF804A009EB24
:10398000080AAAF17F0ACDF800A0DDF804A04FEAEA
:103990006A0ACDF804A0DDF800A04FEA6A0ACDF863
:1039A00000A0DDF804A04FFA8AFAD0F804B00BF8B2
:1039B00013A0DDF800A04FFA8AFAD0F804B00BEBA0
:1039C000430B8BF801A0921C5B1CB4F804A0924539
:1039D00003D9D0F80CA09A45B6D8B61CB1F904A00A
:1039E00005EB4A05B4F806A0B24503D9D0F80CA0FF
:1039F0009A45A7D88360BDE8FC8F2DE9FF4F93B0AF
:103A000004460D4611A80BF0C8F804F10C0144F669
:103A10002060FFF741FE6060606820B94FF0FF3022
:103A200017B0BDE8F08FE0684008E0602046DDE9AF
:103A30001512FFF771FF11A92046FFF728FF129812
:103A4000039011980490DDE903010CF067F8074634
:103A500000BF00BF38460CF0BFFA049038460BF0A8
:103A6000F4F9039001460BE0000080BFCDCCCC3DC3
:103A7000000070416666663F6F12833A6F1283BA28
:103A80000BA8049A0BF086F838460BF0E4F90022F4
:103A90000146049009A809F08DFCFE4938460CF057
:103AA000FAFE109010980BF0D6F980464046119916
:103AB0000CF044FF039012990CF0ADFF0246414612
:103AC000049007A809F076FC0B99E06A0CF0F8FE68
:103AD00004900BF0C6F9824653462046DDE90912F0
:103AE000FFF793FE06463146206B0CF027FF03904C
:103AF0000BF0B7F9314604900CF0CDFE0646AE60EF
:103B0000099868608AF00040034604902046DDE989
:103B10000912FFF77AFE06463146206B0CF00EFFC5
:103B200003900BF09EF9314604900CF074FF0646AA
:103B30002E610999E9600C98FFF792FD0E9010989C
:103B40000BF083F90290E06A02990CF0B9FE039041
:103B50000BF087F904900E990CF0F0FE82468AF083
:103B60000040034604902046DDE90712FFF74DFEB2
:103B70000646304608990CF057FF0190616B0CF037
:103B8000DDFE02900BF06DF903900E990CF0D6FE5D
:103B9000314604900CF03FFF0646414609980CF070
:103BA00043FF0146049030460CF08AFE8346584697
:103BB00009990CF0C3FE02465946049005A80AF084
:103BC000E9FFDDE90523DDE90B01FFF755FD0D9068
:103BD000DDE91123DDE90B01FFF74EFD0F90A16B2D
:103BE0000D980CF093FE12D2A16B0B980CF0A6FE70
:103BF0000590A16B0C980CF0A1FE0690404605992B
:103C00000CF09CFE049006990CF005FF0646AE6190
:103C1000C5F8148053462046DDE90712FFF7F5FD8D
:103C20000646304608990CF0FFFE0190616BE06B90
:103C30000CF084FE009001990CF080FE02900BF0D5
:103C400010F903900E990CF079FE314604900CF0B7
:103C500022FE06462E62C5F81C80A969286A0CF06F
:103C6000C6FE0CD2D5E90501CDE90301D5E907016E
:103C7000C5E90501DDE90312C5E9071200BF606867
:103C800003F051FFA16B0F980CF0CEFE824901901A
:103C90000CF054FE4FF0854102900CF011FE7F496C
:103CA00003900CF0F8FD04900CF013FE8146B9F17E
:103CB000000F01DA4FF00009B9F1640F01DD4FF098
:103CC00064094846ACE62DE9F04F8DB007460C4636
:103CD000164699460BA80AF060FF09A80AF05DFF96
:103CE00006A80AF051FF04A80AF04EFF07F10C01E4
:103CF00044F62060FFF7D0FC7860786820B94FF078
:103D0000FF300DB0BDE8F08FF8684008F860B9F8F2
:103D10000000042803DDB9F80000001F00E00020C7
:103D200080B2ADF81000B9F80200042803DDB9F83C
:103D30000200001F00E0002080B2ADF81200082051
:103D4000ADF81400BDF81000BDF814100844B6F921
:103D50000410884206DDB088BDF81010401A80B209
:103D6000ADF814000820ADF81600BDF81200BDF83B
:103D700016100844B6F90610884206DDF088BDF832
:103D80001210401A80B2ADF8160004AA3146384627
:103D9000FFF7C2FD0BA93846FFF779FD4FF0000889
:103DA0007AE1002575E10120A84000EA080000B191
:103DB0006DE1FDB9BDF81000042806DDBDF8100066
:103DC000001F80B2ADF8180008E00020ADF8180020
:103DD0000120A84040EA080000F0FF08BDF81200EA
:103DE000ADF81A000420ADF81C00BDF81600ADF8BF
:103DF0001E0088E0012D1FD1BDF81200042806DD49
:103E0000BDF81200001F80B2ADF81A0008E00020D3
:103E1000ADF81A000120A84040EA080000F0FF08B1
:103E2000BDF81000ADF81800BDF81400ADF81C0086
:103E30000420ADF81E0066E0022D36D1BDF810005A
:103E4000BDF814100844001DB6F90410884210DDB6
:103E5000B088BDF81010401ABDF81410401A80B296
:103E6000ADF81C000120A84040EA080000F0FF085F
:103E700002E00420ADF81C00BDF81000BDF81410DD
:103E8000084480B2ADF81800BDF81200ADF81A0071
:103E900006E00000DA0FC93F0000C84200002041E0
:103EA000BDF81600ADF81E002DE0BDF81200BDF8FB
:103EB00016100844001DB6F90610884210DDF0887F
:103EC000BDF81210401ABDF81610401A80B2ADF8B5
:103ED0001E000120A84040EA080000F0FF0802E0B0
:103EE0000420ADF81E00BDF81000ADF81800BDF8B4
:103EF0001200BDF81610084480B2ADF81A00BDF8E3
:103F00001400ADF81C0006AA31463846FFF704FD40
:103F100009A93846FFF7BBFCDDE90923DDE90B0100
:103F2000FFF7D1FB0890AF4908980CF060FD01D372
:103F3000B86830B90120A84040EA080000F0FF0846
:103F40004EE0BDF81800BDF8101088420CDABDF83C
:103F50001800ADF81000BDF81400BDF81C1008449E
:103F600080B2ADF814003BE0BDF81A00BDF81210A5
:103F700088420CDABDF81A00ADF81200BDF8160040
:103F8000BDF81E10084480B2ADF8160028E0BDF858
:103F90001800BDF81C100844BDF81010BDF814201E
:103FA0001144884208DDBDF81400BDF81C10084417
:103FB00080B2ADF8140013E0BDF81A00BDF81E1071
:103FC0000844BDF81210BDF816201144884207DDE0
:103FD000BDF81600BDF81E10084480B2ADF81600FA
:103FE000B8F10F0F52D10498206005986060A08846
:103FF0000CF084FC83464FF07D510CF09FFC824610
:104000000CF06EFCA080A0880CF078FC4FF07A5188
:1040100001900CF093FC4FF0804102900CF050FCAA
:10402000834620880CF06AFC594603900CF033FC60
:1040300082460CF055FC2080E0880CF05FFC834643
:104040004FF07D510CF07AFC82460CF049FCE08088
:10405000E0880CF053FC4FF07A5101900CF06EFCAC
:104060004FF0804102900CF02BFC834660880CF0EE
:1040700045FC594603900CF00EFC82460CF030FCD7
:104080006080786803F04FFD00203AE600BF681CAE
:10409000C5B2042DFFF687AE83E678B503460C461D
:1040A000694600254D700D7000BF511E072900DDC7
:1040B00078BD002016E041B28DF80110010A49B226
:1040C0008DF800109DF90110322903DC9DF90010D4
:1040D000322903DD01211D68295402E000211D68F9
:1040E0002954401CB0F5803FE5D3511E03F1100563
:1040F000266845F8216000BFDAE70246481E072817
:1041000001DD00207047481E02F1100353F8200023
:10411000F8E72DE9F04780460C46154695F9000072
:104120000CF0E5FB814661680CF008FC0746A168CD
:104130000CF0B1FB064695F901000CF0D8FB0746E0
:1041400031460CF054FC02D20020BDE8F08795F90E
:1041500000000CF0CCFB8146E1680CF0EFFB074659
:1041600021690CF098FB064695F901000CF0BFFBA5
:10417000074631460CF0CAFB01D20020E5E795F96D
:1041800000000CF0B4FB814661690CF0D7FB0746D8
:10419000A1690CF080FB064695F901000CF0A7FB25
:1041A000074631460CF023FC01D20020CDE795F9FB
:1041B00000000CF09CFB8146E1690CF0BFFB074658
:1041C000216A0CF068FB064695F901000CF08FFBA4
:1041D000074631460CF09AFB01D20020B5E70120DA
:1041E000B3E700000000A0414249016000220168DD
:1041F0000A604A608A607047704730B502461068AE
:1042000080881468E488001B83B2CBB110680488EE
:10421000601C156828801068083050F82400086079
:104220001068C088401C1468E0801068008840F660
:10423000FE34A04202D1002014682080012030BD4D
:104240000020FCE7F0B503460C461E68B6881F68E0
:10425000FF88F61BB1B200201E68358811E01E6889
:1042600008362F4605F1010C1FFA8CF556F8276029
:1042700044F8206040F6FE36B54200D10025461CC9
:10428000B0B2884201DA9042E9D31E68F6880E4443
:104290001F68FE801E6836880E441F683E801E68B8
:1042A000368840F6FE37BE4205D31E683688A6F62D
:1042B000FE361F683E80F0BD026892880368DB8886
:1042C000D21A91B20268D2880A440368DA8002687E
:1042D00012880A4403681A800268128840F6FE3386
:1042E0009A4205D302681288A2F6FE3203681A8049
:1042F0007047000000C000200146F748814201D10C
:1043000000207047F548814201D10120F9E74FF0C4
:10431000FF30F6E70146082088612020086000BFD2
:10432000086800F008000028FAD02020886148685A
:1043300000F0F8007047016801F0200109B1202168
:104340008161102101600821816170470246106877
:1043500000F0200008B120209061C8B290600820D1
:10436000906100BF106800F008000028FAD0506883
:1043700000F0F80070470346012A02D104201860BB
:1043800001E0042098610820986100BF186800F0DF
:1043900008000028FAD098680870586800F0F80003
:1043A000704770B504460D46CB48844210D11A219F
:1043B000092005F077FACA48854204D340F68C40BC
:1043C000C849086016E040F60800C649086011E0D8
:1043D000C24884420DD11B21092005F063FAC12097
:1043E000C1490860C149C1F81001C148854201D0E6
:1043F00070BDFDE7B5F57A7F00D2F9E76C20A061CA
:10440000112005F08FFAB0FBF5F6700820612069E5
:10441000301A606100BFEBE74021816170470129DC
:1044200002D14022026001E040228261704770B5F3
:1044300004460D466DB1A848844203D1122000F015
:10444000FCFB13E0A548844210D1132000F0F5FBDB
:104450000CE0A148844203D1122000F0F9FB05E0F2
:104460009E48844202D1132000F0F2FB70BD2DE97A
:10447000F04105462846FFF73FFF06469D4850F8A5
:104480003640686800F0F8076762F82F03D108200B
:10449000A861BDE8F081974800EBC600406800289D
:1044A00057D1202F48D006DC082F0BD0102F0AD070
:1044B000182F4CD115E0282F14D0302F3DD0382F95
:1044C00045D13FE000BF2020A861606838B1A068F6
:1044D00028B120684000A8600820A86100E012E030
:1044E00036E000BFD4E9021088420BD2606848B1C0
:1044F000E1686068405CA860E068401CE0600820FB
:10450000A86118E000BF01207A4901EBC6014860AC
:10451000606958B1206948B1A06830B1606820B1C5
:10452000202028600C20A86105E031E0606A40F49A
:10453000806060628DE00BE000BF606A40F4007054
:10454000606277E0606A40F48070606200BF71E092
:104550008CE0684800EBC60040680128F8D1402F85
:1045600024D006DC082F0BD0102F0AD0382F60D1B2
:104570005AE0482F53D0502F25D0582F59D13CE026
:1045800000BF2020A861206950B1606940B100BF20
:104590000121206801EB4000A8600820A86104E028
:1045A000606A40F48060606253E05EE0D4E9050137
:1045B000401E814202D20420286001E00420A8614C
:1045C0000820A86151E0206950B1D4E90510884263
:1045D00006D2A868A26921698854A069401CA0611C
:1045E000D4E90501401E814202D20420286001E086
:1045F0000420A8610820A86137E0206950B1D4E9FF
:104600000510884206D2A868A26921698854A06969
:10461000401CA061606A40F48060606219E0606ADA
:1046200040F40070606205E0606A40F4807060628F
:1046300000BF00BFD4E90710884209D20020E06023
:10464000202028600C20A861206A401C20620BE01A
:1046500000BF00212846FFF7EAFE2846FFF76BFE61
:104660000120254941F8260000BF00BF00BF10E728
:104670002DE9F04104462046FFF73EFE80461D48E6
:1046800050F83850606800F0F806AE61F82E03D19B
:104690000820A061BDE8F08106F0070000287CD169
:1046A000F0100C38142878D2DFE800F00F7710777C
:1046B000283B293C3F5A775B6E7777777777770A85
:1046C000042020600820A06173E000BF0420206067
:1046D0000820A0616DE0000000100A4000000E40BC
:1046E00040420F00846C08400C61084000600840A4
:1046F000801A0600F40100200C02002000BFD5E95A
:104700000410884208D2E86830B1A0686A69E96894
:1047100088546869401C6861042020600820A061FA
:1047200047E000BF0820A06143E000212046FFF7DA
:104730007EFE0820A06147030FE0206800F008001B
:1047400020B101212046FFF772FE07E07F1E27B946
:10475000A86940F48060A86120E0EEE700BF28E08F
:1047600000BFD5E90110884208D2286830B1A96895
:104770002868405CA060A868401CA86004202060F5
:104780000820A06115E008E0042020600820A06156
:10479000A86940F48060A86100E000BF00212046C5
:1047A000FFF745FE2C20A0610120F84941F82800C0
:1047B00000BF00BF00BF6DE72DE9F84306460C4679
:1047C0001746D4F80480D4F810900020E060A0616F
:1047D0006062002F7ED1206200BFD4F80480D4F83C
:1047E00010900020E060A06100253046FFF792FDA8
:1047F0000546082D0BD0102D09D0206A401C2062E0
:10480000D4E90710884201D96562ABE0E5E7A0680A
:10481000A0B3606890B320784006010E3046FFF7E1
:1048200095FD0546182D0BD0206A401C2062D4E966
:104830000710884203D945F40070606292E0CCE72B
:1048400018E098F800103046FFF780FD0546282D47
:104850000BD0206A401C2062D4E90710884203D99B
:1048600045F4007060627DE0B7E708F10108E06898
:10487000401CE060D4E902108842E2D3A068B8B1DD
:104880006068A8B1606998B1206988B13046FFF7C7
:1048900041FD0546082D0BD0102D09D0206A401C83
:1048A0002062D4E90710884201D965625AE094E792
:1048B0006069002850D0206900284DD0207801225E
:1048C00002EB4000C1B23046FFF740FD0546402DE7
:1048D0000DD000E04BE0206A401C2062D4E90710B4
:1048E000884203D945F4007060623BE075E72FE031
:1048F000D4E90501401E814211D2012269463046A9
:10490000FFF739FD0546502D1BD0206A401C206260
:10491000D4E90710884201D9656223E05DE70022EF
:1049200069463046FFF727FD0546582D09D0206A15
:10493000401C2062D4E90710884201D9656211E069
:104940004BE79DF8000009F8010BA069401CA0612D
:10495000D4E905108842CBD33046FFF7ECFC0120A8
:10496000BDE8F8833046FFF7E6FC0020F8E7012FAA
:1049700028D13046FFF7C0FCC0B2009084489DF8B3
:10498000001040F83140002081499DF8002001EBE3
:10499000C20148600820B06120203060012130460B
:1049A000FFF745FD00BF7B489DF8001050F821003F
:1049B0000128F8D1002077499DF8002041F8220015
:1049C0000120CDE70020CBE72DE9F84F04460D4646
:1049D0001646D5F80090D5F80CA00020A8606861B4
:1049E000A861002E75D1042020602820A06100203D
:1049F000009083466EE0206800F0080000285FD039
:104A000000200090606800F0F80707F00700002819
:104A100052D1F8100C3814284ED2DFE800F00F4DB8
:104A2000104D152716282B324D33444D4D4D4D4D0D
:104A30004D0A042020600820A06140E000BF04204F
:104A400020600820A0613AE000BFD5E90410884248
:104A500007D2E86828B1A0680AF8010B6869401C11
:104A60006861042020600820A06128E000BF0820C1
:104A7000A06124E00820A061012000904FF0000B0D
:104A80001DE000BFD5E90110884207D2286828B18F
:104A900019F8010BA060A868401CA86004202060E1
:104AA0000820A0610BE0042020600820A061012004
:104AB00000904FF0000B02E00820A06113E009E035
:104AC000009838B158460BF1010BB0F5803F01D981
:104AD00001E00DE08FE70420A06147F48060A86149
:104AE0000120BDE8F88F0420A061AF610020F8E745
:104AF000012E15D12046FFF7FFFB8046244840F8E1
:104B000038500120224901EBC80148600420206090
:104B10002820A06101212046FFF789FC0120E0E761
:104B20000020DEE710B58B78012B00D100E00023D8
:104B30004C7843EA4403DAB20B7833B1012B0AD044
:104B4000022B0ED0032B18D111E0C260CB7803F0FA
:104B5000FE03036311E00262CB7803F0FE044463BA
:104B60000BE04262CB7803F0FE04846305E08262CE
:104B7000CB7803F0FE04C46300BF00BF10BD10B5C6
:104B8000012A09D1C3690B43C3610AE0180200205E
:104B9000F40100200C020020C36907248C43234049
:104BA000C36110BD012908D1C26942F00102C2618E
:104BB000042202602822826105E0C26902F0060236
:104BC000C2612C2282610022264B1A607047014686
:104BD000C86AC0B2704730B50346002008249C6103
:104BE000DC6A204D2D684C551E4C2468641C1D4DFC
:104BF0002C602C462468944200D3012030BD70B54F
:104C000005462846FFF778FB0446174850F824600D
:104C10000020154941F82400304670BD70B50546A6
:104C20002846FFF769FB0446104850F8246000202E
:104C30000E4941F82400304670BD00F01F020121EA
:104C400091404209920002F1E022C2F8001170473F
:104C500000F01F0201219140054A430942F8231048
:104C600070470000700000200C0200201802002095
:104C700080E100E038B504466068406800F0F8055F
:104C8000C02D3AD004DCA82D0DD0B82D3CD10BE0BE
:104C9000C82D31D0F82D37D1042061680860082074
:104CA0006168886134E000BF00BFE06A50B9226BE0
:104CB000D4E908109047E062E06A08B900200BE0F0
:104CC0000020A062A16A481CA062606A405C00905B
:104CD000E06A401EE062012020B19DF8000061689A
:104CE000886002E0002061688860042061680860D4
:104CF0000820616888610BE000BF042061680860DB
:104D000008206168886103E02C206168886100BF29
:104D100000BF38BD10B55F480068FFF7ABFF10BD9E
:104D200038B504460D468DF8015000208DF803007B
:104D30008DF8000069466068FFF7F4FE002038BD7A
:104D40002DE9F04705460F4690461E465249534806
:104D5000286005F108044FF02009C4F8009020688D
:104D60000AF08BF860600020A060E0602061606164
:104D700000BFA4F1080505F12004C4F800902068E4
:104D80000AF07BF860600020A060E060266100BF50
:104D9000A4F120056F6042496868FFF702FB4146B5
:104DA0002846FFF7BDFF17200021002807DA0A0771
:104DB000140E3C4A00F00F031B1FD45403E00A07F3
:104DC000130E394A135400BF2846BDE8F08770B56A
:104DD000044634200AF05AF8054623465422334943
:104DE000FFF7AEFF05462B48056070BD38214268CD
:104DF0009161442142681160704710B50446002358
:104E0000F022032101200BF06BF80423F022012192
:104E100002200BF065F80423F022012102200BF0A0
:104E20005FF80023F022042101200BF059F804233D
:104E3000F022002102200BF053F800201C490860EA
:104E40001220012181404209920002F1E022C2F8C1
:104E5000001100BF2046FFF7C9FF002010BD10B5AC
:104E60000146122001228240124B440943F82420BB
:104E700000BF002010BD03460020704700B5034668
:104E80005868006800F0040010B91846FFF7AEFF3C
:104E9000002000BD74000020D02E01101C2E011037
:104EA000A086010018ED00E000E400E000100A40D8
:104EB0001812104080E100E070B504460D462A4605
:104EC000214653480068FEF701FA70BD10B504464C
:104ED000042C02DD4FF0FF3010BD4E48006830B1A9
:104EE0004C480068006841684A48006888474A485A
:104EF0000470052C22D2DFE804F02203080D17000D
:104F000046480068434908601EE04548006841493A
:104F1000086019E001214348006800F0B6F84148F4
:104F200000683C4908600FE000213E48006800F03E
:104F3000ACF83C4800683749086005E000BF3A48D3
:104F400000683449086000BF00BF3248006800684C
:104F500001683048006888470020BDE700B585B08B
:104F6000002000900123314A0146019030A007F053
:104F7000C3FE002054210123314ACDE90010102145
:104F800030A007F0B9FE00204FF496410423304AC8
:104F9000CDE9001001462FA007F0AEFE002204A9C3
:104FA00023A007F028FF9DF81000FFF78FFF0022D5
:104FB00003A924A007F01FFF9DF80C1017480068F4
:104FC000FFF7AEFE002202A922A007F014FF14484A
:104FD0000299006800F011FC05B000BD10B5AFF2F9
:104FE0002710FFF7F4FEAFF22F1000F0EBF9AFF24D
:104FF000371000F075FB00F03DF8FFF7AFFF002021
:1050000010BD0548007870470248006870470000EE
:10501000040000207C0000207800002074000020A4
:105020008800002080000020840000206C400110D7
:1050300044617461206F757420706F727400000099
:105040004C410110493243206164647265737300FE
:10505000F0400110554152542062617564726174D0
:10506000650000003B493C490160012101710021BC
:105070004171704710B5082009F008FF0446FFF79A
:10508000F1FF04463548046010BD0171704710B54A
:1050900004460223F022032101200AF021FF04200C
:1050A0002F49886200022F49086008202E49486075
:1050B000002010BD10B5044600202B494860052390
:1050C000F022032101200AF00BFF002010BD70B573
:1050D0000646002125480068FEF78DF904465CB3BA
:1050E000307960B1A1886288881A00EBD07102EB38
:1050F00061052D044FF4A070B5FBF0F50CE021899B
:10510000E288881A00EBD07102EB6101C1F1C80599
:105110002D04C820B5FBF0F54FF6C07005401248CD
:105120000560707910B964200AF022FE4FF48060A7
:105130000C49091F086005E000200A49091F0860A2
:10514000094908600CB1012000E0002070710020C6
:1051500070BD0000D02E0110102F01108000002023
:10516000001010401812104000100E4004000020E3
:10517000F8B504464FF48040E34908600020E34955
:10518000C1F81402E24886680420E149086220E080
:1051900000BFA06A60B9E3695900E26A206A9047DB
:1051A0004008A062A06A08B900200CE000206062FC
:1051B000616A481C6062206A30F811000090A06AA1
:1051C000401EA062012000B909E0BDF80000D049EE
:1051D0008860CF48C06800F002000028D8D100BF26
:1051E00006F47F40B0F5B44F03D1012084F83000BD
:1051F00026E006F47F40B0F5B64F1ED1251DB7B2AC
:1052000000BF28460BF07BF82968081A002800DC4C
:105210000FE0E968481CE860686820F811702869A8
:10522000401C28612968E868884201D10020E860B4
:1052300000BF012084F8300002E0002084F8300034
:10524000606B401C6063F8BD10B5B2480068FFF7A2
:105250008FFF10BD02464FF48040AB4B1860002119
:1052600006E0AD48406900F0040000B102E0491CCE
:105270009629F6D300BF962912D10020A24B1860C0
:10528000002106E0A448406900F0040000B102E0FB
:10529000491C1029F6D300BF102901D10120704705
:1052A0000020994B186000BFF9E738B50446002587
:1052B00000220421964804F0B7FD68460AF05EFE1D
:1052C0000CE02046FFF7C6FF08B1012507E0009873
:1052D0000AF096FD9149884200D900E0F1E700BF4D
:1052E000012204218A4804F09FFD284638BD2DE99B
:1052F000F04188B004460E4689498A482060251D41
:105300004FF01008C5F800802968480009F0B5FD85
:1053100068600020A860E8602861686100BF2C1FF9
:1053200004F11C05C5F800802968480009F0A5FDB6
:1053300068600020A860E8602E6100BFA5F11C0431
:1053400002900390784806900F200190042004906A
:105350000020059001A96E4804F0FEFC002703E040
:105360006B48806807907F1C082FF9D3012168489B
:1053700004F0E6FC0421664804F0E0FC012204216C
:10538000634804F051FD17200021002807DA0A07BE
:10539000150E664A00F00F031B1FD55403E00A07E1
:1053A000130E634A135400BF002084F8300060637A
:1053B000A06384F83C002046FFF777FF204608B042
:1053C000BDE8F08170B50446402009F05FFD054658
:1053D0002146FFF78CFF05464E48056070BD10B5AD
:1053E000044604204949886300034749091D0860B1
:1053F0000523F022032101200AF072FD0523F0228B
:10540000042101200AF06CFD0123F022132118462B
:105410000AF066FD1720012181404209920002F145
:10542000E022C2F8001100BF002010BD10B50146F7
:105430000020354A121D10601720012282403D4B8A
:10544000440943F8242000BF002010BD2DE9F84393
:1054500080460E46174600251FE008F1040420464A
:105460000AF04DFF002801DC002010E0A168481C74
:10547000A060606830F8110000906069401C6061B5
:105480002168A068884201D10020A060012000B9F5
:1054900005E0BDF8000070556D1CBD42DDD300BFB6
:1054A0002846BDE8F88310B50446201D0AF027FF02
:1054B00010BD10B50446D4E90D01401A18D094F877
:1054C000300088B914F83C0F401C207014F83C09D7
:1054D000052815D12046FFF7E8FE17A007F062FB6C
:1054E000002084F83C000BE0002084F83C0007E03A
:1054F0004FF480400449086000200449C1F81402B8
:10550000606BA063002010BD14121040001010400A
:1055100000500C408400002000610F4020A10700D3
:10552000D02E0110382E011000CB280C18ED00E011
:1055300000E400E080E100E073796E630A0000009F
:105540002DE9FC410446002084F83400606880683E
:1055500000F00E06042E1FD104F1080560680068F3
:1055600000F0FF0800BF28460AF0C4FE2968081AA8
:10557000002800DC0FE0E968481CE860686800F873
:1055800001802869401C28612968E868884201D1A7
:105590000020E86000BF2DE00C2E03D16068006899
:1055A000009027E0022E25D1002721E000BFE06A0D
:1055B00050B9226BD4E908109047E062E06A08B95C
:1055C00000200BE00020A062A16A481CA062606A73
:1055D000405C0190E06A401EE062012030B1012091
:1055E00084F834009DF8040061680860781CC7B234
:1055F000102FDBDBBDE8FC8110B585480068FFF7A4
:105600009FFF10BD2DE9FF4104460F461646814914
:105610008148206004F108054FF02008C5F800809B
:10562000286809F02AFC68600020A860E86028610A
:10563000686100BFA5F1080404F12005C5F80080E9
:10564000286809F01AFC68600020A860E8602E61F4
:1056500000BFA5F12004676084F834004FF4964041
:10566000009003208DF8050000208DF804008DF8CF
:1056700006006A4802906946606804F0E1FD002077
:105680008DF80E008DF80F0001208DF80C008DF8BC
:105690000D0003A9606804F09DFD0121606804F01D
:1056A00057FF01220021606804F07AFE01221146B2
:1056B000606804F075FE18200021002807DA0A0748
:1056C000150E574A00F00F031B1FD55403E00A07BD
:1056D000130E544A135400BF204604B0BDE8F081B5
:1056E00070B50446382009F0D1FB054622464E49E4
:1056F000FFF788FF05464648056070BD10B50446B3
:105700000123F022002102200AF0EAFB0123F0220B
:10571000194602200AF0E4FB0023F02203210120B5
:105720000AF0DEFB0023F022042101200AF0D8FB5E
:105730001820012181404209920002F1E022C2F8C2
:10574000001100BF002010BD10B504460423F02254
:10575000002102200AF0C4FB0423F02201210220D0
:105760000AF0BEFB182001218140304A430942F86B
:10577000231000BF002010BD2DE9F84380460E46DF
:10578000174616B90020BDE8F88300251EE008F191
:10579000080420460AF0AEFD002801DC00200FE0DE
:1057A000A168481CA0606068405C00906069401C73
:1057B00060612168A068884201D10020A0600120BA
:1057C00000B905E09DF8000070556D1CBD42DED3A8
:1057D00000BF2846D7E710B5044604F108000AF0D8
:1057E00089FD10BD014691F8340020B900204A68B7
:1057F00010604A6810600020704770B504460D467E
:10580000064A2946606804F0BFFE002070BD000013
:1058100088000020D02E0110782E011000CB280C1B
:1058200018ED00E000E400E00010084080E100E036
:1058300001460020002902DD01F11E0003E00029DD
:1058400001DAA1F11E0000F5FA70B0F57A7F02DDF1
:105850004FF47A7002E0002800DA0020704710B59B
:10586000D0E900341A1B02EBD2735B100B60D0E955
:1058700000341A1902EBD2735B104B6010BD10B5E7
:1058800002461368B3F1004F13D01368CB1A946823
:105890006343546801FB04334FF47A7493FBF4F0D0
:1058A000B0F5FA7F01DD601003E010F5FA7F00DA51
:1058B0008548116010BDF0B587B004460D46C4F1AF
:1058C000A006C5F1820739468048FFF7D8FF03904C
:1058D00031467F48FFF7D3FF049001A903A8FFF7E3
:1058E000BEFF0198FFF7A4FF80B20590002006904C
:1058F00005A906A806F0C6FA0298FFF799FF80B23C
:1059000005900120069005A906A806F0BBFA07B08D
:10591000F0BD4160826070471FB500204FF4FA71FE
:1059200004236CA2CDE90010014679A007F0E4F948
:1059300000204FF4487104237AA2CDE900100146FB
:1059400087A007F0D9F900204FF4FA71042389A247
:10595000CDE90010014696A007F0CEF900204FF4E3
:105960004871042396A2CDE900100146A2A007F0D9
:10597000C3F9002203A966A007F03DFA002202A99C
:1059800077A007F038FA5148DDE90221FFF7C1FF9F
:10599000002203A986A007F02EFA002202A996A0F1
:1059A00007F029FA4A48DDE90221FFF7B2FF1FBDDF
:1059B0001CB50120019001A806F0B8FAFFF7ACFF72
:1059C000002001904FF4FA700090694601A806F09B
:1059D00059FA012001904FF4FA700090694601A82D
:1059E00006F050FA8848006808B1FAF709FD8748C0
:1059F0000068FEF761FC0020FBF7C5FA00201CBD23
:105A000070B586B082480068FDF7DDFA0021804855
:105A10000068FDF7F0FC0446A4B1A1886288881AEA
:105A200000EBD07102EB61018DB22189E288881A06
:105A300000EBD07102EB61018EB231462846FFF7D0
:105A40003AFF12E0002001904FF4FA70009069468E
:105A500001A806F017FA012001904FF4FA700090A7
:105A6000694601A806F00EFA00BF02A804AB03AA1B
:105A700005A9009066480068FDF71DFD0120029908
:105A8000CDE900106348DDE9032305990068FBF7C1
:105A9000B2F8FBF703F9002006B070BD41608260E8
:105AA0004FF000430360704700B54FF448724FF465
:105AB000FA710648FFF7F2FF4FF461724FF42F714D
:105AC0000348FFF7EBFF00BD0CFEFFFF24020020A0
:105AD0003002002040632043686173655F64656D38
